{
    "_format": "hh-sol-artifact-1",
    "contractName": "MyEpicGame",
    "sourceName": "contracts/MyEpicGame.sol",
    "abi": [
        {
            "inputs": [
                {
                    "internalType": "string[]",
                    "name": "characterNames",
                    "type": "string[]"
                },
                {
                    "internalType": "string[]",
                    "name": "characterImageURIs",
                    "type": "string[]"
                },
                {
                    "internalType": "uint256[]",
                    "name": "characterHp",
                    "type": "uint256[]"
                },
                {
                    "internalType": "uint256[]",
                    "name": "characterAttackDmg",
                    "type": "uint256[]"
                },
                {
                    "internalType": "string",
                    "name": "bossName",
                    "type": "string"
                },
                {
                    "internalType": "string",
                    "name": "bossImageURI",
                    "type": "string"
                },
                {
                    "internalType": "uint256",
                    "name": "bossHp",
                    "type": "uint256"
                },
                {
                    "internalType": "uint256",
                    "name": "bossAttackDamage",
                    "type": "uint256"
                }
            ],
            "stateMutability": "nonpayable",
            "type": "constructor"
        },
        {
            "anonymous": false,
            "inputs": [
                {
                    "indexed": true,
                    "internalType": "address",
                    "name": "owner",
                    "type": "address"
                },
                {
                    "indexed": true,
                    "internalType": "address",
                    "name": "approved",
                    "type": "address"
                },
                {
                    "indexed": true,
                    "internalType": "uint256",
                    "name": "tokenId",
                    "type": "uint256"
                }
            ],
            "name": "Approval",
            "type": "event"
        },
        {
            "anonymous": false,
            "inputs": [
                {
                    "indexed": true,
                    "internalType": "address",
                    "name": "owner",
                    "type": "address"
                },
                {
                    "indexed": true,
                    "internalType": "address",
                    "name": "operator",
                    "type": "address"
                },
                {
                    "indexed": false,
                    "internalType": "bool",
                    "name": "approved",
                    "type": "bool"
                }
            ],
            "name": "ApprovalForAll",
            "type": "event"
        },
        {
            "anonymous": false,
            "inputs": [
                {
                    "indexed": false,
                    "internalType": "uint256",
                    "name": "newBossHp",
                    "type": "uint256"
                },
                {
                    "indexed": false,
                    "internalType": "uint256",
                    "name": "newPlayerHp",
                    "type": "uint256"
                }
            ],
            "name": "AttackComplete",
            "type": "event"
        },
        {
            "anonymous": false,
            "inputs": [
                {
                    "indexed": false,
                    "internalType": "address",
                    "name": "sender",
                    "type": "address"
                },
                {
                    "indexed": false,
                    "internalType": "uint256",
                    "name": "tokenId",
                    "type": "uint256"
                },
                {
                    "indexed": false,
                    "internalType": "uint256",
                    "name": "characterIndex",
                    "type": "uint256"
                }
            ],
            "name": "CharacterNFTMinted",
            "type": "event"
        },
        {
            "anonymous": false,
            "inputs": [
                {
                    "indexed": true,
                    "internalType": "address",
                    "name": "from",
                    "type": "address"
                },
                {
                    "indexed": true,
                    "internalType": "address",
                    "name": "to",
                    "type": "address"
                },
                {
                    "indexed": true,
                    "internalType": "uint256",
                    "name": "tokenId",
                    "type": "uint256"
                }
            ],
            "name": "Transfer",
            "type": "event"
        },
        {
            "inputs": [
                {
                    "internalType": "address",
                    "name": "to",
                    "type": "address"
                },
                {
                    "internalType": "uint256",
                    "name": "tokenId",
                    "type": "uint256"
                }
            ],
            "name": "approve",
            "outputs": [],
            "stateMutability": "nonpayable",
            "type": "function"
        },
        {
            "inputs": [],
            "name": "attackBoss",
            "outputs": [],
            "stateMutability": "nonpayable",
            "type": "function"
        },
        {
            "inputs": [
                {
                    "internalType": "address",
                    "name": "owner",
                    "type": "address"
                }
            ],
            "name": "balanceOf",
            "outputs": [
                {
                    "internalType": "uint256",
                    "name": "",
                    "type": "uint256"
                }
            ],
            "stateMutability": "view",
            "type": "function"
        },
        {
            "inputs": [],
            "name": "checkIfUserHasNFT",
            "outputs": [
                {
                    "components": [
                        {
                            "internalType": "uint256",
                            "name": "characterIndex",
                            "type": "uint256"
                        },
                        {
                            "internalType": "string",
                            "name": "name",
                            "type": "string"
                        },
                        {
                            "internalType": "string",
                            "name": "imageURI",
                            "type": "string"
                        },
                        {
                            "internalType": "uint256",
                            "name": "hp",
                            "type": "uint256"
                        },
                        {
                            "internalType": "uint256",
                            "name": "maxHp",
                            "type": "uint256"
                        },
                        {
                            "internalType": "uint256",
                            "name": "attackDamage",
                            "type": "uint256"
                        }
                    ],
                    "internalType": "struct MyEpicGame.CharacterAttributes",
                    "name": "",
                    "type": "tuple"
                }
            ],
            "stateMutability": "view",
            "type": "function"
        },
        {
            "inputs": [],
            "name": "finalBoss",
            "outputs": [
                {
                    "internalType": "string",
                    "name": "name",
                    "type": "string"
                },
                {
                    "internalType": "string",
                    "name": "imageURI",
                    "type": "string"
                },
                {
                    "internalType": "uint256",
                    "name": "hp",
                    "type": "uint256"
                },
                {
                    "internalType": "uint256",
                    "name": "maxHp",
                    "type": "uint256"
                },
                {
                    "internalType": "uint256",
                    "name": "attackDamage",
                    "type": "uint256"
                }
            ],
            "stateMutability": "view",
            "type": "function"
        },
        {
            "inputs": [],
            "name": "getAllDefaultCharacters",
            "outputs": [
                {
                    "components": [
                        {
                            "internalType": "uint256",
                            "name": "characterIndex",
                            "type": "uint256"
                        },
                        {
                            "internalType": "string",
                            "name": "name",
                            "type": "string"
                        },
                        {
                            "internalType": "string",
                            "name": "imageURI",
                            "type": "string"
                        },
                        {
                            "internalType": "uint256",
                            "name": "hp",
                            "type": "uint256"
                        },
                        {
                            "internalType": "uint256",
                            "name": "maxHp",
                            "type": "uint256"
                        },
                        {
                            "internalType": "uint256",
                            "name": "attackDamage",
                            "type": "uint256"
                        }
                    ],
                    "internalType": "struct MyEpicGame.CharacterAttributes[]",
                    "name": "",
                    "type": "tuple[]"
                }
            ],
            "stateMutability": "view",
            "type": "function"
        },
        {
            "inputs": [
                {
                    "internalType": "uint256",
                    "name": "tokenId",
                    "type": "uint256"
                }
            ],
            "name": "getApproved",
            "outputs": [
                {
                    "internalType": "address",
                    "name": "",
                    "type": "address"
                }
            ],
            "stateMutability": "view",
            "type": "function"
        },
        {
            "inputs": [],
            "name": "getFinalBoss",
            "outputs": [
                {
                    "components": [
                        {
                            "internalType": "string",
                            "name": "name",
                            "type": "string"
                        },
                        {
                            "internalType": "string",
                            "name": "imageURI",
                            "type": "string"
                        },
                        {
                            "internalType": "uint256",
                            "name": "hp",
                            "type": "uint256"
                        },
                        {
                            "internalType": "uint256",
                            "name": "maxHp",
                            "type": "uint256"
                        },
                        {
                            "internalType": "uint256",
                            "name": "attackDamage",
                            "type": "uint256"
                        }
                    ],
                    "internalType": "struct MyEpicGame.FinalBoss",
                    "name": "",
                    "type": "tuple"
                }
            ],
            "stateMutability": "view",
            "type": "function"
        },
        {
            "inputs": [
                {
                    "internalType": "address",
                    "name": "owner",
                    "type": "address"
                },
                {
                    "internalType": "address",
                    "name": "operator",
                    "type": "address"
                }
            ],
            "name": "isApprovedForAll",
            "outputs": [
                {
                    "internalType": "bool",
                    "name": "",
                    "type": "bool"
                }
            ],
            "stateMutability": "view",
            "type": "function"
        },
        {
            "inputs": [
                {
                    "internalType": "uint256",
                    "name": "_characterIndex",
                    "type": "uint256"
                }
            ],
            "name": "mintCharacterNFT",
            "outputs": [],
            "stateMutability": "nonpayable",
            "type": "function"
        },
        {
            "inputs": [],
            "name": "name",
            "outputs": [
                {
                    "internalType": "string",
                    "name": "",
                    "type": "string"
                }
            ],
            "stateMutability": "view",
            "type": "function"
        },
        {
            "inputs": [
                {
                    "internalType": "uint256",
                    "name": "",
                    "type": "uint256"
                }
            ],
            "name": "nftHolderAttributes",
            "outputs": [
                {
                    "internalType": "uint256",
                    "name": "characterIndex",
                    "type": "uint256"
                },
                {
                    "internalType": "string",
                    "name": "name",
                    "type": "string"
                },
                {
                    "internalType": "string",
                    "name": "imageURI",
                    "type": "string"
                },
                {
                    "internalType": "uint256",
                    "name": "hp",
                    "type": "uint256"
                },
                {
                    "internalType": "uint256",
                    "name": "maxHp",
                    "type": "uint256"
                },
                {
                    "internalType": "uint256",
                    "name": "attackDamage",
                    "type": "uint256"
                }
            ],
            "stateMutability": "view",
            "type": "function"
        },
        {
            "inputs": [
                {
                    "internalType": "address",
                    "name": "",
                    "type": "address"
                }
            ],
            "name": "nftHolders",
            "outputs": [
                {
                    "internalType": "uint256",
                    "name": "",
                    "type": "uint256"
                }
            ],
            "stateMutability": "view",
            "type": "function"
        },
        {
            "inputs": [
                {
                    "internalType": "uint256",
                    "name": "tokenId",
                    "type": "uint256"
                }
            ],
            "name": "ownerOf",
            "outputs": [
                {
                    "internalType": "address",
                    "name": "",
                    "type": "address"
                }
            ],
            "stateMutability": "view",
            "type": "function"
        },
        {
            "inputs": [
                {
                    "internalType": "address",
                    "name": "from",
                    "type": "address"
                },
                {
                    "internalType": "address",
                    "name": "to",
                    "type": "address"
                },
                {
                    "internalType": "uint256",
                    "name": "tokenId",
                    "type": "uint256"
                }
            ],
            "name": "safeTransferFrom",
            "outputs": [],
            "stateMutability": "nonpayable",
            "type": "function"
        },
        {
            "inputs": [
                {
                    "internalType": "address",
                    "name": "from",
                    "type": "address"
                },
                {
                    "internalType": "address",
                    "name": "to",
                    "type": "address"
                },
                {
                    "internalType": "uint256",
                    "name": "tokenId",
                    "type": "uint256"
                },
                {
                    "internalType": "bytes",
                    "name": "_data",
                    "type": "bytes"
                }
            ],
            "name": "safeTransferFrom",
            "outputs": [],
            "stateMutability": "nonpayable",
            "type": "function"
        },
        {
            "inputs": [
                {
                    "internalType": "address",
                    "name": "operator",
                    "type": "address"
                },
                {
                    "internalType": "bool",
                    "name": "approved",
                    "type": "bool"
                }
            ],
            "name": "setApprovalForAll",
            "outputs": [],
            "stateMutability": "nonpayable",
            "type": "function"
        },
        {
            "inputs": [
                {
                    "internalType": "bytes4",
                    "name": "interfaceId",
                    "type": "bytes4"
                }
            ],
            "name": "supportsInterface",
            "outputs": [
                {
                    "internalType": "bool",
                    "name": "",
                    "type": "bool"
                }
            ],
            "stateMutability": "view",
            "type": "function"
        },
        {
            "inputs": [],
            "name": "symbol",
            "outputs": [
                {
                    "internalType": "string",
                    "name": "",
                    "type": "string"
                }
            ],
            "stateMutability": "view",
            "type": "function"
        },
        {
            "inputs": [
                {
                    "internalType": "uint256",
                    "name": "_tokenId",
                    "type": "uint256"
                }
            ],
            "name": "tokenURI",
            "outputs": [
                {
                    "internalType": "string",
                    "name": "",
                    "type": "string"
                }
            ],
            "stateMutability": "view",
            "type": "function"
        },
        {
            "inputs": [
                {
                    "internalType": "address",
                    "name": "from",
                    "type": "address"
                },
                {
                    "internalType": "address",
                    "name": "to",
                    "type": "address"
                },
                {
                    "internalType": "uint256",
                    "name": "tokenId",
                    "type": "uint256"
                }
            ],
            "name": "transferFrom",
            "outputs": [],
            "stateMutability": "nonpayable",
            "type": "function"
        }
    ],
    "bytecode": "0x60806040523480156200001157600080fd5b50604051620059a4380380620059a4833981810160405281019062000037919062000a59565b6040518060400160405280601581526020017f496e75796173686120576f726c6420536c6179657200000000000000000000008152506040518060400160405280600381526020017f49575300000000000000000000000000000000000000000000000000000000008152508160009080519060200190620000bb929190620007ec565b508060019080519060200190620000d4929190620007ec565b5050506040518060a0016040528085815260200184815260200183815260200183815260200182815250600a60008201518160000190805190602001906200011e929190620007ec565b5060208201518160010190805190602001906200013d929190620007ec565b50604082015181600201556060820151816003015560808201518160040155905050620002c06040518060600160405280603381526020016200594f60339139600a60000180546200018f9062000d7f565b80601f0160208091040260200160405190810160405280929190818152602001828054620001bd9062000d7f565b80156200020e5780601f10620001e2576101008083540402835291602001916200020e565b820191906000526020600020905b815481529060010190602001808311620001f057829003601f168201915b5050505050600a60020154600a60010180546200022b9062000d7f565b80601f0160208091040260200160405190810160405280929190818152602001828054620002599062000d7f565b8015620002aa5780601f106200027e57610100808354040283529160200191620002aa565b820191906000526020600020905b8154815290600101906020018083116200028c57829003601f168201915b50505050506200070160201b62001cf01760201c565b60005b8851811015620006db5760076040518060c001604052808381526020018b84815181106200031a577f4e487b7100000000000000000000000000000000000000000000000000000000600052603260045260246000fd5b602002602001015181526020018a848151811062000361577f4e487b7100000000000000000000000000000000000000000000000000000000600052603260045260246000fd5b60200260200101518152602001898481518110620003a8577f4e487b7100000000000000000000000000000000000000000000000000000000600052603260045260246000fd5b60200260200101518152602001898481518110620003ef577f4e487b7100000000000000000000000000000000000000000000000000000000600052603260045260246000fd5b6020026020010151815260200188848151811062000436577f4e487b7100000000000000000000000000000000000000000000000000000000600052603260045260246000fd5b6020026020010151815250908060018154018082558091505060019003906000526020600020906006020160009091909190915060008201518160000155602082015181600101908051906020019062000492929190620007ec565b506040820151816002019080519060200190620004b1929190620007ec565b50606082015181600301556080820151816004015560a0820151816005015550506000600782815481106200050f577f4e487b7100000000000000000000000000000000000000000000000000000000600052603260045260246000fd5b90600052602060002090600602016040518060c001604052908160008201548152602001600182018054620005449062000d7f565b80601f0160208091040260200160405190810160405280929190818152602001828054620005729062000d7f565b8015620005c35780601f106200059757610100808354040283529160200191620005c3565b820191906000526020600020905b815481529060010190602001808311620005a557829003601f168201915b50505050508152602001600282018054620005de9062000d7f565b80601f01602080910402602001604051908101604052809291908181526020018280546200060c9062000d7f565b80156200065d5780601f1062000631576101008083540402835291602001916200065d565b820191906000526020600020905b8154815290600101906020018083116200063f57829003601f168201915b5050505050815260200160038201548152602001600482015481526020016005820154815250509050620006c460405180606001604052806022815260200162005982602291398260200151836060015184604001516200070160201b62001cf01760201c565b508080620006d29062000deb565b915050620002c3565b50620006f36006620007ad60201b62001d921760201c565b505050505050505062000ef1565b620007a7848484846040516024016200071e949392919062000c04565b6040516020818303038152906040527f8d142cdd000000000000000000000000000000000000000000000000000000007bffffffffffffffffffffffffffffffffffffffffffffffffffffffff19166020820180517bffffffffffffffffffffffffffffffffffffffffffffffffffffffff8381831617835250505050620007c360201b60201c565b50505050565b6001816000016000828254019250508190555050565b60008151905060006a636f6e736f6c652e6c6f679050602083016000808483855afa5050505050565b828054620007fa9062000d7f565b90600052602060002090601f0160209004810192826200081e57600085556200086a565b82601f106200083957805160ff19168380011785556200086a565b828001600101855582156200086a579182015b82811115620008695782518255916020019190600101906200084c565b5b5090506200087991906200087d565b5090565b5b80821115620008985760008160009055506001016200087e565b5090565b6000620008b3620008ad8462000c8f565b62000c66565b9050808382526020820190508260005b85811015620008f75781518501620008dc888262000a15565b845260208401935060208301925050600181019050620008c3565b5050509392505050565b600062000918620009128462000cbe565b62000c66565b905080838252602082019050828560208602820111156200093857600080fd5b60005b858110156200096c578162000951888262000a42565b8452602084019350602083019250506001810190506200093b565b5050509392505050565b60006200098d620009878462000ced565b62000c66565b905082815260208101848484011115620009a657600080fd5b620009b384828562000d49565b509392505050565b600082601f830112620009cd57600080fd5b8151620009df8482602086016200089c565b91505092915050565b600082601f830112620009fa57600080fd5b815162000a0c84826020860162000901565b91505092915050565b600082601f83011262000a2757600080fd5b815162000a3984826020860162000976565b91505092915050565b60008151905062000a538162000ed7565b92915050565b600080600080600080600080610100898b03121562000a7757600080fd5b600089015167ffffffffffffffff81111562000a9257600080fd5b62000aa08b828c01620009bb565b985050602089015167ffffffffffffffff81111562000abe57600080fd5b62000acc8b828c01620009bb565b975050604089015167ffffffffffffffff81111562000aea57600080fd5b62000af88b828c01620009e8565b965050606089015167ffffffffffffffff81111562000b1657600080fd5b62000b248b828c01620009e8565b955050608089015167ffffffffffffffff81111562000b4257600080fd5b62000b508b828c0162000a15565b94505060a089015167ffffffffffffffff81111562000b6e57600080fd5b62000b7c8b828c0162000a15565b93505060c062000b8f8b828c0162000a42565b92505060e062000ba28b828c0162000a42565b9150509295985092959890939650565b600062000bbf8262000d23565b62000bcb818562000d2e565b935062000bdd81856020860162000d49565b62000be88162000ec6565b840191505092915050565b62000bfe8162000d3f565b82525050565b6000608082019050818103600083015262000c20818762000bb2565b9050818103602083015262000c36818662000bb2565b905062000c47604083018562000bf3565b818103606083015262000c5b818462000bb2565b905095945050505050565b600062000c7262000c85565b905062000c80828262000db5565b919050565b6000604051905090565b600067ffffffffffffffff82111562000cad5762000cac62000e97565b5b602082029050602081019050919050565b600067ffffffffffffffff82111562000cdc5762000cdb62000e97565b5b602082029050602081019050919050565b600067ffffffffffffffff82111562000d0b5762000d0a62000e97565b5b62000d168262000ec6565b9050602081019050919050565b600081519050919050565b600082825260208201905092915050565b6000819050919050565b60005b8381101562000d6957808201518184015260208101905062000d4c565b8381111562000d79576000848401525b50505050565b6000600282049050600182168062000d9857607f821691505b6020821081141562000daf5762000dae62000e68565b5b50919050565b62000dc08262000ec6565b810181811067ffffffffffffffff8211171562000de25762000de162000e97565b5b80604052505050565b600062000df88262000d3f565b91507fffffffffffffffffffffffffffffffffffffffffffffffffffffffffffffffff82141562000e2e5762000e2d62000e39565b5b600182019050919050565b7f4e487b7100000000000000000000000000000000000000000000000000000000600052601160045260246000fd5b7f4e487b7100000000000000000000000000000000000000000000000000000000600052602260045260246000fd5b7f4e487b7100000000000000000000000000000000000000000000000000000000600052604160045260246000fd5b6000601f19601f8301169050919050565b62000ee28162000d3f565b811462000eee57600080fd5b50565b614a4e8062000f016000396000f3fe608060405234801561001057600080fd5b50600436106101375760003560e01c806395d89b41116100b8578063b953084e1161007c578063b953084e14610369578063c87b56dd14610387578063c8cf27f4146103b7578063d4f24c5b146103d5578063e985e9c5146103df578063f8b81ef71461040f57610137565b806395d89b41146102c057806398da4c95146102de578063a22cb46514610313578063b58c40bb1461032f578063b88d4fde1461034d57610137565b806342842e0e116100ff57806342842e0e146101f25780636352211e1461020e57806370a082311461023e57806371b6fec41461026e5780637df124a11461029057610137565b806301ffc9a71461013c57806306fdde031461016c578063081812fc1461018a578063095ea7b3146101ba57806323b872dd146101d6575b600080fd5b61015660048036038101906101519190613166565b61042b565b60405161016391906139cb565b60405180910390f35b61017461050d565b60405161018191906139e6565b60405180910390f35b6101a4600480360381019061019f91906131b8565b61059f565b6040516101b1919061390b565b60405180910390f35b6101d460048036038101906101cf919061312a565b610624565b005b6101f060048036038101906101eb9190613024565b61073c565b005b61020c60048036038101906102079190613024565b61079c565b005b610228600480360381019061022391906131b8565b6107bc565b604051610235919061390b565b60405180910390f35b61025860048036038101906102539190612fbf565b61086e565b6040516102659190613dbd565b60405180910390f35b610276610926565b604051610287959493929190613afa565b60405180910390f35b6102aa60048036038101906102a59190612fbf565b610a5a565b6040516102b79190613dbd565b60405180910390f35b6102c8610a72565b6040516102d591906139e6565b60405180910390f35b6102f860048036038101906102f391906131b8565b610b04565b60405161030a96959493929190613dd8565b60405180910390f35b61032d600480360381019061032891906130ee565b610c50565b005b610337610c66565b6040516103449190613d9b565b60405180910390f35b61036760048036038101906103629190613073565b610dc2565b005b610371610e24565b60405161037e91906139a9565b60405180910390f35b6103a1600480360381019061039c91906131b8565b610fcf565b6040516103ae91906139e6565b60405180910390f35b6103bf6111ea565b6040516103cc9190613d79565b60405180910390f35b6103dd6113c2565b005b6103f960048036038101906103f49190612fe8565b611868565b60405161040691906139cb565b60405180910390f35b610429600480360381019061042491906131b8565b6118fc565b005b60007f80ac58cd000000000000000000000000000000000000000000000000000000007bffffffffffffffffffffffffffffffffffffffffffffffffffffffff1916827bffffffffffffffffffffffffffffffffffffffffffffffffffffffff191614806104f657507f5b5e139f000000000000000000000000000000000000000000000000000000007bffffffffffffffffffffffffffffffffffffffffffffffffffffffff1916827bffffffffffffffffffffffffffffffffffffffffffffffffffffffff1916145b80610506575061050582611da8565b5b9050919050565b60606000805461051c9061411e565b80601f01602080910402602001604051908101604052809291908181526020018280546105489061411e565b80156105955780601f1061056a57610100808354040283529160200191610595565b820191906000526020600020905b81548152906001019060200180831161057857829003601f168201915b5050505050905090565b60006105aa82611e12565b6105e9576040517f08c379a00000000000000000000000000000000000000000000000000000000081526004016105e090613d19565b60405180910390fd5b6004600083815260200190815260200160002060009054906101000a900473ffffffffffffffffffffffffffffffffffffffff169050919050565b600061062f826107bc565b90508073ffffffffffffffffffffffffffffffffffffffff168373ffffffffffffffffffffffffffffffffffffffff1614156106a0576040517f08c379a000000000000000000000000000000000000000000000000000000000815260040161069790613d39565b60405180910390fd5b8073ffffffffffffffffffffffffffffffffffffffff166106bf611e7e565b73ffffffffffffffffffffffffffffffffffffffff1614806106ee57506106ed816106e8611e7e565b611868565b5b61072d576040517f08c379a000000000000000000000000000000000000000000000000000000000815260040161072490613c99565b60405180910390fd5b6107378383611e86565b505050565b61074d610747611e7e565b82611f3f565b61078c576040517f08c379a000000000000000000000000000000000000000000000000000000000815260040161078390613d59565b60405180910390fd5b61079783838361201d565b505050565b6107b783838360405180602001604052806000815250610dc2565b505050565b6000806002600084815260200190815260200160002060009054906101000a900473ffffffffffffffffffffffffffffffffffffffff169050600073ffffffffffffffffffffffffffffffffffffffff168173ffffffffffffffffffffffffffffffffffffffff161415610865576040517f08c379a000000000000000000000000000000000000000000000000000000000815260040161085c90613cd9565b60405180910390fd5b80915050919050565b60008073ffffffffffffffffffffffffffffffffffffffff168273ffffffffffffffffffffffffffffffffffffffff1614156108df576040517f08c379a00000000000000000000000000000000000000000000000000000000081526004016108d690613cb9565b60405180910390fd5b600360008373ffffffffffffffffffffffffffffffffffffffff1673ffffffffffffffffffffffffffffffffffffffff168152602001908152602001600020549050919050565b600a8060000180546109379061411e565b80601f01602080910402602001604051908101604052809291908181526020018280546109639061411e565b80156109b05780601f10610985576101008083540402835291602001916109b0565b820191906000526020600020905b81548152906001019060200180831161099357829003601f168201915b5050505050908060010180546109c59061411e565b80601f01602080910402602001604051908101604052809291908181526020018280546109f19061411e565b8015610a3e5780601f10610a1357610100808354040283529160200191610a3e565b820191906000526020600020905b815481529060010190602001808311610a2157829003601f168201915b5050505050908060020154908060030154908060040154905085565b60096020528060005260406000206000915090505481565b606060018054610a819061411e565b80601f0160208091040260200160405190810160405280929190818152602001828054610aad9061411e565b8015610afa5780601f10610acf57610100808354040283529160200191610afa565b820191906000526020600020905b815481529060010190602001808311610add57829003601f168201915b5050505050905090565b6008602052806000526040600020600091509050806000015490806001018054610b2d9061411e565b80601f0160208091040260200160405190810160405280929190818152602001828054610b599061411e565b8015610ba65780601f10610b7b57610100808354040283529160200191610ba6565b820191906000526020600020905b815481529060010190602001808311610b8957829003601f168201915b505050505090806002018054610bbb9061411e565b80601f0160208091040260200160405190810160405280929190818152602001828054610be79061411e565b8015610c345780601f10610c0957610100808354040283529160200191610c34565b820191906000526020600020905b815481529060010190602001808311610c1757829003601f168201915b5050505050908060030154908060040154908060050154905086565b610c62610c5b611e7e565b8383612284565b5050565b610c6e612de6565b600a6040518060a0016040529081600082018054610c8b9061411e565b80601f0160208091040260200160405190810160405280929190818152602001828054610cb79061411e565b8015610d045780601f10610cd957610100808354040283529160200191610d04565b820191906000526020600020905b815481529060010190602001808311610ce757829003601f168201915b50505050508152602001600182018054610d1d9061411e565b80601f0160208091040260200160405190810160405280929190818152602001828054610d499061411e565b8015610d965780601f10610d6b57610100808354040283529160200191610d96565b820191906000526020600020905b815481529060010190602001808311610d7957829003601f168201915b505050505081526020016002820154815260200160038201548152602001600482015481525050905090565b610dd3610dcd611e7e565b83611f3f565b610e12576040517f08c379a0000000000000000000000000000000000000000000000000000000008152600401610e0990613d59565b60405180910390fd5b610e1e848484846123f1565b50505050565b60606007805480602002602001604051908101604052809291908181526020016000905b82821015610fc657838290600052602060002090600602016040518060c001604052908160008201548152602001600182018054610e859061411e565b80601f0160208091040260200160405190810160405280929190818152602001828054610eb19061411e565b8015610efe5780601f10610ed357610100808354040283529160200191610efe565b820191906000526020600020905b815481529060010190602001808311610ee157829003601f168201915b50505050508152602001600282018054610f179061411e565b80601f0160208091040260200160405190810160405280929190818152602001828054610f439061411e565b8015610f905780601f10610f6557610100808354040283529160200191610f90565b820191906000526020600020905b815481529060010190602001808311610f7357829003601f168201915b50505050508152602001600382015481526020016004820154815260200160058201548152505081526020019060010190610e48565b50505050905090565b60606000600860008481526020019081526020016000206040518060c00160405290816000820154815260200160018201805461100b9061411e565b80601f01602080910402602001604051908101604052809291908181526020018280546110379061411e565b80156110845780601f1061105957610100808354040283529160200191611084565b820191906000526020600020905b81548152906001019060200180831161106757829003601f168201915b5050505050815260200160028201805461109d9061411e565b80601f01602080910402602001604051908101604052809291908181526020018280546110c99061411e565b80156111165780601f106110eb57610100808354040283529160200191611116565b820191906000526020600020905b8154815290600101906020018083116110f957829003601f168201915b5050505050815260200160038201548152602001600482015481526020016005820154815250509050600061114e826060015161244d565b9050600061115f836080015161244d565b905060006111708460a0015161244d565b905060006111b685602001516111858961244d565b87604001518787876040516020016111a296959493929190613844565b6040516020818303038152906040526125fa565b90506000816040516020016111cb91906138e9565b6040516020818303038152906040529050809650505050505050919050565b6111f2612e15565b6000600960003373ffffffffffffffffffffffffffffffffffffffff1673ffffffffffffffffffffffffffffffffffffffff16815260200190815260200160002054905060008111156113b157600860008281526020019081526020016000206040518060c0016040529081600082015481526020016001820180546112779061411e565b80601f01602080910402602001604051908101604052809291908181526020018280546112a39061411e565b80156112f05780601f106112c5576101008083540402835291602001916112f0565b820191906000526020600020905b8154815290600101906020018083116112d357829003601f168201915b505050505081526020016002820180546113099061411e565b80601f01602080910402602001604051908101604052809291908181526020018280546113359061411e565b80156113825780601f1061135757610100808354040283529160200191611382565b820191906000526020600020905b81548152906001019060200180831161136557829003601f168201915b5050505050815260200160038201548152602001600482015481526020016005820154815250509150506113bf565b6113b9612e15565b80925050505b90565b6000600960003373ffffffffffffffffffffffffffffffffffffffff1673ffffffffffffffffffffffffffffffffffffffff16815260200190815260200160002054905060006008600083815260200190815260200160002090506114d56040518060800160405280604b8152602001614935604b91398260010180546114489061411e565b80601f01602080910402602001604051908101604052809291908181526020018280546114749061411e565b80156114c15780601f10611496576101008083540402835291602001916114c1565b820191906000526020600020905b8154815290600101906020018083116114a457829003601f168201915b5050505050836003015484600501546127b8565b6115ad6040518060400160405280601a81526020017f25732068617320257320485020616e642025732041747461636b000000000000815250600a600001805461151e9061411e565b80601f016020809104026020016040519081016040528092919081815260200182805461154a9061411e565b80156115975780601f1061156c57610100808354040283529160200191611597565b820191906000526020600020905b81548152906001019060200180831161157a57829003601f168201915b5050505050600a60020154600a600401546127b8565b60008160030154116115f4576040517f08c379a00000000000000000000000000000000000000000000000000000000081526004016115eb90613b99565b60405180910390fd5b6000600a600201541161163c576040517f08c379a000000000000000000000000000000000000000000000000000000000815260040161163390613bd9565b60405180910390fd5b8060050154600a60020154101561165d576000600a6002018190555061167c565b8060050154600a600201546116729190614034565b600a600201819055505b600a600401548160030154101561169c57600081600301819055506116ba565b600a6004015481600301546116b19190614034565b81600301819055505b7f838ab28464562786a6c4ab2311964b82fa60bd9b14aa7e856af1f3f18d41a414600a6002015482600301546040516116f4929190613e47565b60405180910390a16117b060405180606001604052806027815260200161490e602791398260010180546117279061411e565b80601f01602080910402602001604051908101604052809291908181526020018280546117539061411e565b80156117a05780601f10611775576101008083540402835291602001916117a0565b820191906000526020600020905b81548152906001019060200180831161178357829003601f168201915b5050505050600a6002015461285a565b6118646040518060600160405280602b81526020016149ee602b9139600a60000180546117dc9061411e565b80601f01602080910402602001604051908101604052809291908181526020018280546118089061411e565b80156118555780601f1061182a57610100808354040283529160200191611855565b820191906000526020600020905b81548152906001019060200180831161183857829003601f168201915b5050505050836003015461285a565b5050565b6000600560008473ffffffffffffffffffffffffffffffffffffffff1673ffffffffffffffffffffffffffffffffffffffff16815260200190815260200160002060008373ffffffffffffffffffffffffffffffffffffffff1673ffffffffffffffffffffffffffffffffffffffff16815260200190815260200160002060009054906101000a900460ff16905092915050565b600061190860066128f9565b90506119143382612907565b6040518060c001604052808381526020016007848154811061195f577f4e487b7100000000000000000000000000000000000000000000000000000000600052603260045260246000fd5b9060005260206000209060060201600101805461197b9061411e565b80601f01602080910402602001604051908101604052809291908181526020018280546119a79061411e565b80156119f45780601f106119c9576101008083540402835291602001916119f4565b820191906000526020600020905b8154815290600101906020018083116119d757829003601f168201915b5050505050815260200160078481548110611a38577f4e487b7100000000000000000000000000000000000000000000000000000000600052603260045260246000fd5b90600052602060002090600602016002018054611a549061411e565b80601f0160208091040260200160405190810160405280929190818152602001828054611a809061411e565b8015611acd5780601f10611aa257610100808354040283529160200191611acd565b820191906000526020600020905b815481529060010190602001808311611ab057829003601f168201915b5050505050815260200160078481548110611b11577f4e487b7100000000000000000000000000000000000000000000000000000000600052603260045260246000fd5b906000526020600020906006020160030154815260200160078481548110611b62577f4e487b7100000000000000000000000000000000000000000000000000000000600052603260045260246000fd5b906000526020600020906006020160030154815260200160078481548110611bb3577f4e487b7100000000000000000000000000000000000000000000000000000000600052603260045260246000fd5b90600052602060002090600602016005015481525060086000838152602001908152602001600020600082015181600001556020820151816001019080519060200190611c01929190612e4b565b506040820151816002019080519060200190611c1e929190612e4b565b50606082015181600301556080820151816004015560a08201518160050155905050611c636040518060600160405280602e81526020016149c0602e91398284612925565b80600960003373ffffffffffffffffffffffffffffffffffffffff1673ffffffffffffffffffffffffffffffffffffffff16815260200190815260200160002081905550611cb16006611d92565b7f4bc303fd457a97b4691b9af582ce71868a3d258638c8d4f8c60988a0f0bfb8cd338284604051611ce493929190613972565b60405180910390a15050565b611d8c84848484604051602401611d0a9493929190613a4d565b6040516020818303038152906040527f8d142cdd000000000000000000000000000000000000000000000000000000007bffffffffffffffffffffffffffffffffffffffffffffffffffffffff19166020820180517bffffffffffffffffffffffffffffffffffffffffffffffffffffffff83818316178352505050506129c4565b50505050565b6001816000016000828254019250508190555050565b60007f01ffc9a7000000000000000000000000000000000000000000000000000000007bffffffffffffffffffffffffffffffffffffffffffffffffffffffff1916827bffffffffffffffffffffffffffffffffffffffffffffffffffffffff1916149050919050565b60008073ffffffffffffffffffffffffffffffffffffffff166002600084815260200190815260200160002060009054906101000a900473ffffffffffffffffffffffffffffffffffffffff1673ffffffffffffffffffffffffffffffffffffffff1614159050919050565b600033905090565b816004600083815260200190815260200160002060006101000a81548173ffffffffffffffffffffffffffffffffffffffff021916908373ffffffffffffffffffffffffffffffffffffffff160217905550808273ffffffffffffffffffffffffffffffffffffffff16611ef9836107bc565b73ffffffffffffffffffffffffffffffffffffffff167f8c5be1e5ebec7d5bd14f71427d1e84f3dd0314c0f7b2291e5b200ac8c7c3b92560405160405180910390a45050565b6000611f4a82611e12565b611f89576040517f08c379a0000000000000000000000000000000000000000000000000000000008152600401611f8090613c79565b60405180910390fd5b6000611f94836107bc565b90508073ffffffffffffffffffffffffffffffffffffffff168473ffffffffffffffffffffffffffffffffffffffff16148061200357508373ffffffffffffffffffffffffffffffffffffffff16611feb8461059f565b73ffffffffffffffffffffffffffffffffffffffff16145b8061201457506120138185611868565b5b91505092915050565b8273ffffffffffffffffffffffffffffffffffffffff1661203d826107bc565b73ffffffffffffffffffffffffffffffffffffffff1614612093576040517f08c379a000000000000000000000000000000000000000000000000000000000815260040161208a90613bf9565b60405180910390fd5b600073ffffffffffffffffffffffffffffffffffffffff168273ffffffffffffffffffffffffffffffffffffffff161415612103576040517f08c379a00000000000000000000000000000000000000000000000000000000081526004016120fa90613c39565b60405180910390fd5b61210e8383836129ed565b612119600082611e86565b6001600360008573ffffffffffffffffffffffffffffffffffffffff1673ffffffffffffffffffffffffffffffffffffffff16815260200190815260200160002060008282546121699190614034565b925050819055506001600360008473ffffffffffffffffffffffffffffffffffffffff1673ffffffffffffffffffffffffffffffffffffffff16815260200190815260200160002060008282546121c09190613f53565b92505081905550816002600083815260200190815260200160002060006101000a81548173ffffffffffffffffffffffffffffffffffffffff021916908373ffffffffffffffffffffffffffffffffffffffff160217905550808273ffffffffffffffffffffffffffffffffffffffff168473ffffffffffffffffffffffffffffffffffffffff167fddf252ad1be2c89b69c2b068fc378daa952ba7f163c4a11628f55a4df523b3ef60405160405180910390a461227f8383836129f2565b505050565b8173ffffffffffffffffffffffffffffffffffffffff168373ffffffffffffffffffffffffffffffffffffffff1614156122f3576040517f08c379a00000000000000000000000000000000000000000000000000000000081526004016122ea90613c59565b60405180910390fd5b80600560008573ffffffffffffffffffffffffffffffffffffffff1673ffffffffffffffffffffffffffffffffffffffff16815260200190815260200160002060008473ffffffffffffffffffffffffffffffffffffffff1673ffffffffffffffffffffffffffffffffffffffff16815260200190815260200160002060006101000a81548160ff0219169083151502179055508173ffffffffffffffffffffffffffffffffffffffff168373ffffffffffffffffffffffffffffffffffffffff167f17307eab39ab6107e8899845ad3d59bd9653f200f220920489ca2b5937696c31836040516123e491906139cb565b60405180910390a3505050565b6123fc84848461201d565b612408848484846129f7565b612447576040517f08c379a000000000000000000000000000000000000000000000000000000000815260040161243e90613bb9565b60405180910390fd5b50505050565b60606000821415612495576040518060400160405280600181526020017f300000000000000000000000000000000000000000000000000000000000000081525090506125f5565b600082905060005b600082146124c75780806124b090614181565b915050600a826124c09190613fa9565b915061249d565b60008167ffffffffffffffff811115612509577f4e487b7100000000000000000000000000000000000000000000000000000000600052604160045260246000fd5b6040519080825280601f01601f19166020018201604052801561253b5781602001600182028036833780820191505090505b5090505b600085146125ee576001826125549190614034565b9150600a8561256391906141ca565b603061256f9190613f53565b60f81b8183815181106125ab577f4e487b7100000000000000000000000000000000000000000000000000000000600052603260045260246000fd5b60200101907effffffffffffffffffffffffffffffffffffffffffffffffffffffffffffff1916908160001a905350600a856125e79190613fa9565b945061253f565b8093505050505b919050565b6060600082519050600081141561262357604051806020016040528060008152509150506127b3565b600060036002836126349190613f53565b61263e9190613fa9565b600461264a9190613fda565b9050600060208261265b9190613f53565b67ffffffffffffffff81111561269a577f4e487b7100000000000000000000000000000000000000000000000000000000600052604160045260246000fd5b6040519080825280601f01601f1916602001820160405280156126cc5781602001600182028036833780820191505090505b5090506000604051806060016040528060408152602001614980604091399050600181016020830160005b868110156127705760038101905062ffffff818a015116603f8160121c168401518060081b905060ff603f83600c1c1686015116810190508060081b905060ff603f8360061c1686015116810190508060081b905060ff603f831686015116810190508060e01b905080845260048401935050506126f7565b50600386066001811461278a576002811461279a576127a5565b613d3d60f01b60028303526127a5565b603d60f81b60018303525b508484525050819450505050505b919050565b612854848484846040516024016127d29493929190613aa7565b6040516020818303038152906040527fd5cf17d0000000000000000000000000000000000000000000000000000000007bffffffffffffffffffffffffffffffffffffffffffffffffffffffff19166020820180517bffffffffffffffffffffffffffffffffffffffffffffffffffffffff83818316178352505050506129c4565b50505050565b6128f483838360405160240161287293929190613a08565b6040516020818303038152906040527ff362ca59000000000000000000000000000000000000000000000000000000007bffffffffffffffffffffffffffffffffffffffffffffffffffffffff19166020820180517bffffffffffffffffffffffffffffffffffffffffffffffffffffffff83818316178352505050506129c4565b505050565b600081600001549050919050565b612921828260405180602001604052806000815250612b8e565b5050565b6129bf83838360405160240161293d93929190613b5b565b6040516020818303038152906040527f969cdd03000000000000000000000000000000000000000000000000000000007bffffffffffffffffffffffffffffffffffffffffffffffffffffffff19166020820180517bffffffffffffffffffffffffffffffffffffffffffffffffffffffff83818316178352505050506129c4565b505050565b60008151905060006a636f6e736f6c652e6c6f679050602083016000808483855afa5050505050565b505050565b505050565b6000612a188473ffffffffffffffffffffffffffffffffffffffff16612be9565b15612b81578373ffffffffffffffffffffffffffffffffffffffff1663150b7a02612a41611e7e565b8786866040518563ffffffff1660e01b8152600401612a639493929190613926565b602060405180830381600087803b158015612a7d57600080fd5b505af1925050508015612aae57506040513d601f19601f82011682018060405250810190612aab919061318f565b60015b612b31573d8060008114612ade576040519150601f19603f3d011682016040523d82523d6000602084013e612ae3565b606091505b50600081511415612b29576040517f08c379a0000000000000000000000000000000000000000000000000000000008152600401612b2090613bb9565b60405180910390fd5b805181602001fd5b63150b7a0260e01b7bffffffffffffffffffffffffffffffffffffffffffffffffffffffff1916817bffffffffffffffffffffffffffffffffffffffffffffffffffffffff191614915050612b86565b600190505b949350505050565b612b988383612c0c565b612ba560008484846129f7565b612be4576040517f08c379a0000000000000000000000000000000000000000000000000000000008152600401612bdb90613bb9565b60405180910390fd5b505050565b6000808273ffffffffffffffffffffffffffffffffffffffff163b119050919050565b600073ffffffffffffffffffffffffffffffffffffffff168273ffffffffffffffffffffffffffffffffffffffff161415612c7c576040517f08c379a0000000000000000000000000000000000000000000000000000000008152600401612c7390613cf9565b60405180910390fd5b612c8581611e12565b15612cc5576040517f08c379a0000000000000000000000000000000000000000000000000000000008152600401612cbc90613c19565b60405180910390fd5b612cd1600083836129ed565b6001600360008473ffffffffffffffffffffffffffffffffffffffff1673ffffffffffffffffffffffffffffffffffffffff1681526020019081526020016000206000828254612d219190613f53565b92505081905550816002600083815260200190815260200160002060006101000a81548173ffffffffffffffffffffffffffffffffffffffff021916908373ffffffffffffffffffffffffffffffffffffffff160217905550808273ffffffffffffffffffffffffffffffffffffffff16600073ffffffffffffffffffffffffffffffffffffffff167fddf252ad1be2c89b69c2b068fc378daa952ba7f163c4a11628f55a4df523b3ef60405160405180910390a4612de2600083836129f2565b5050565b6040518060a0016040528060608152602001606081526020016000815260200160008152602001600081525090565b6040518060c001604052806000815260200160608152602001606081526020016000815260200160008152602001600081525090565b828054612e579061411e565b90600052602060002090601f016020900481019282612e795760008555612ec0565b82601f10612e9257805160ff1916838001178555612ec0565b82800160010185558215612ec0579182015b82811115612ebf578251825591602001919060010190612ea4565b5b509050612ecd9190612ed1565b5090565b5b80821115612eea576000816000905550600101612ed2565b5090565b6000612f01612efc84613e95565b613e70565b905082815260208101848484011115612f1957600080fd5b612f248482856140dc565b509392505050565b600081359050612f3b816148b1565b92915050565b600081359050612f50816148c8565b92915050565b600081359050612f65816148df565b92915050565b600081519050612f7a816148df565b92915050565b600082601f830112612f9157600080fd5b8135612fa1848260208601612eee565b91505092915050565b600081359050612fb9816148f6565b92915050565b600060208284031215612fd157600080fd5b6000612fdf84828501612f2c565b91505092915050565b60008060408385031215612ffb57600080fd5b600061300985828601612f2c565b925050602061301a85828601612f2c565b9150509250929050565b60008060006060848603121561303957600080fd5b600061304786828701612f2c565b935050602061305886828701612f2c565b925050604061306986828701612faa565b9150509250925092565b6000806000806080858703121561308957600080fd5b600061309787828801612f2c565b94505060206130a887828801612f2c565b93505060406130b987828801612faa565b925050606085013567ffffffffffffffff8111156130d657600080fd5b6130e287828801612f80565b91505092959194509250565b6000806040838503121561310157600080fd5b600061310f85828601612f2c565b925050602061312085828601612f41565b9150509250929050565b6000806040838503121561313d57600080fd5b600061314b85828601612f2c565b925050602061315c85828601612faa565b9150509250929050565b60006020828403121561317857600080fd5b600061318684828501612f56565b91505092915050565b6000602082840312156131a157600080fd5b60006131af84828501612f6b565b91505092915050565b6000602082840312156131ca57600080fd5b60006131d884828501612faa565b91505092915050565b60006131ed8383613689565b905092915050565b6131fe81614068565b82525050565b600061320f82613ed6565b6132198185613f04565b93508360208202850161322b85613ec6565b8060005b85811015613267578484038952815161324885826131e1565b945061325383613ef7565b925060208a0199505060018101905061322f565b50829750879550505050505092915050565b6132828161407a565b82525050565b600061329382613ee1565b61329d8185613f15565b93506132ad8185602086016140eb565b6132b6816142b7565b840191505092915050565b60006132cc82613eec565b6132d68185613f26565b93506132e68185602086016140eb565b6132ef816142b7565b840191505092915050565b600061330582613eec565b61330f8185613f37565b935061331f8185602086016140eb565b613328816142b7565b840191505092915050565b600061333e82613eec565b6133488185613f48565b93506133588185602086016140eb565b80840191505092915050565b6000613371603483613f37565b915061337c826142c8565b604082019050919050565b6000613394603283613f37565b915061339f82614317565b604082019050919050565b60006133b7601583613f37565b91506133c282614366565b602082019050919050565b60006133da602583613f37565b91506133e58261438f565b604082019050919050565b60006133fd601c83613f37565b9150613408826143de565b602082019050919050565b6000613420600e83613f48565b915061342b82614407565b600e82019050919050565b6000613443602483613f37565b915061344e82614430565b604082019050919050565b6000613466601983613f37565b91506134718261447f565b602082019050919050565b6000613489602c83613f37565b9150613494826144a8565b604082019050919050565b60006134ac603883613f37565b91506134b7826144f7565b604082019050919050565b60006134cf602a83613f37565b91506134da82614546565b604082019050919050565b60006134f2602983613f37565b91506134fd82614595565b604082019050919050565b6000613515600483613f48565b9150613520826145e4565b600482019050919050565b6000613538602083613f37565b91506135438261460d565b602082019050919050565b600061355b602c83613f37565b915061356682614636565b604082019050919050565b600061357e600a83613f48565b915061358982614685565b600a82019050919050565b60006135a1605c83613f48565b91506135ac826146ae565b605c82019050919050565b60006135c4602183613f37565b91506135cf82614723565b604082019050919050565b60006135e7600983613f48565b91506135f282614772565b600982019050919050565b600061360a601d83613f48565b91506136158261479b565b601d82019050919050565b600061362d603183613f37565b9150613638826147c4565b604082019050919050565b6000613650603d83613f48565b915061365b82614813565b603d82019050919050565b6000613673602d83613f48565b915061367e82614862565b602d82019050919050565b600060c0830160008301516136a16000860182613826565b50602083015184820360208601526136b982826132c1565b915050604083015184820360408601526136d382826132c1565b91505060608301516136e86060860182613826565b5060808301516136fb6080860182613826565b5060a083015161370e60a0860182613826565b508091505092915050565b600060c0830160008301516137316000860182613826565b506020830151848203602086015261374982826132c1565b9150506040830151848203604086015261376382826132c1565b91505060608301516137786060860182613826565b50608083015161378b6080860182613826565b5060a083015161379e60a0860182613826565b508091505092915050565b600060a08301600083015184820360008601526137c682826132c1565b915050602083015184820360208601526137e082826132c1565b91505060408301516137f56040860182613826565b5060608301516138086060860182613826565b50608083015161381b6080860182613826565b508091505092915050565b61382f816140d2565b82525050565b61383e816140d2565b82525050565b600061384f82613571565b915061385b8289613333565b9150613866826135da565b91506138728288613333565b915061387d82613594565b91506138898287613333565b915061389482613643565b91506138a08286613333565b91506138ab82613413565b91506138b78285613333565b91506138c282613666565b91506138ce8284613333565b91506138d982613508565b9150819050979650505050505050565b60006138f4826135fd565b91506139008284613333565b915081905092915050565b600060208201905061392060008301846131f5565b92915050565b600060808201905061393b60008301876131f5565b61394860208301866131f5565b6139556040830185613835565b81810360608301526139678184613288565b905095945050505050565b600060608201905061398760008301866131f5565b6139946020830185613835565b6139a16040830184613835565b949350505050565b600060208201905081810360008301526139c38184613204565b905092915050565b60006020820190506139e06000830184613279565b92915050565b60006020820190508181036000830152613a0081846132fa565b905092915050565b60006060820190508181036000830152613a2281866132fa565b90508181036020830152613a3681856132fa565b9050613a456040830184613835565b949350505050565b60006080820190508181036000830152613a6781876132fa565b90508181036020830152613a7b81866132fa565b9050613a8a6040830185613835565b8181036060830152613a9c81846132fa565b905095945050505050565b60006080820190508181036000830152613ac181876132fa565b90508181036020830152613ad581866132fa565b9050613ae46040830185613835565b613af16060830184613835565b95945050505050565b600060a0820190508181036000830152613b1481886132fa565b90508181036020830152613b2881876132fa565b9050613b376040830186613835565b613b446060830185613835565b613b516080830184613835565b9695505050505050565b60006060820190508181036000830152613b7581866132fa565b9050613b846020830185613835565b613b916040830184613835565b949350505050565b60006020820190508181036000830152613bb281613364565b9050919050565b60006020820190508181036000830152613bd281613387565b9050919050565b60006020820190508181036000830152613bf2816133aa565b9050919050565b60006020820190508181036000830152613c12816133cd565b9050919050565b60006020820190508181036000830152613c32816133f0565b9050919050565b60006020820190508181036000830152613c5281613436565b9050919050565b60006020820190508181036000830152613c7281613459565b9050919050565b60006020820190508181036000830152613c928161347c565b9050919050565b60006020820190508181036000830152613cb28161349f565b9050919050565b60006020820190508181036000830152613cd2816134c2565b9050919050565b60006020820190508181036000830152613cf2816134e5565b9050919050565b60006020820190508181036000830152613d128161352b565b9050919050565b60006020820190508181036000830152613d328161354e565b9050919050565b60006020820190508181036000830152613d52816135b7565b9050919050565b60006020820190508181036000830152613d7281613620565b9050919050565b60006020820190508181036000830152613d938184613719565b905092915050565b60006020820190508181036000830152613db581846137a9565b905092915050565b6000602082019050613dd26000830184613835565b92915050565b600060c082019050613ded6000830189613835565b8181036020830152613dff81886132fa565b90508181036040830152613e1381876132fa565b9050613e226060830186613835565b613e2f6080830185613835565b613e3c60a0830184613835565b979650505050505050565b6000604082019050613e5c6000830185613835565b613e696020830184613835565b9392505050565b6000613e7a613e8b565b9050613e868282614150565b919050565b6000604051905090565b600067ffffffffffffffff821115613eb057613eaf614288565b5b613eb9826142b7565b9050602081019050919050565b6000819050602082019050919050565b600081519050919050565b600081519050919050565b600081519050919050565b6000602082019050919050565b600082825260208201905092915050565b600082825260208201905092915050565b600082825260208201905092915050565b600082825260208201905092915050565b600081905092915050565b6000613f5e826140d2565b9150613f69836140d2565b9250827fffffffffffffffffffffffffffffffffffffffffffffffffffffffffffffffff03821115613f9e57613f9d6141fb565b5b828201905092915050565b6000613fb4826140d2565b9150613fbf836140d2565b925082613fcf57613fce61422a565b5b828204905092915050565b6000613fe5826140d2565b9150613ff0836140d2565b9250817fffffffffffffffffffffffffffffffffffffffffffffffffffffffffffffffff0483118215151615614029576140286141fb565b5b828202905092915050565b600061403f826140d2565b915061404a836140d2565b92508282101561405d5761405c6141fb565b5b828203905092915050565b6000614073826140b2565b9050919050565b60008115159050919050565b60007fffffffff0000000000000000000000000000000000000000000000000000000082169050919050565b600073ffffffffffffffffffffffffffffffffffffffff82169050919050565b6000819050919050565b82818337600083830152505050565b60005b838110156141095780820151818401526020810190506140ee565b83811115614118576000848401525b50505050565b6000600282049050600182168061413657607f821691505b6020821081141561414a57614149614259565b5b50919050565b614159826142b7565b810181811067ffffffffffffffff8211171561417857614177614288565b5b80604052505050565b600061418c826140d2565b91507fffffffffffffffffffffffffffffffffffffffffffffffffffffffffffffffff8214156141bf576141be6141fb565b5b600182019050919050565b60006141d5826140d2565b91506141e0836140d2565b9250826141f0576141ef61422a565b5b828206905092915050565b7f4e487b7100000000000000000000000000000000000000000000000000000000600052601160045260246000fd5b7f4e487b7100000000000000000000000000000000000000000000000000000000600052601260045260246000fd5b7f4e487b7100000000000000000000000000000000000000000000000000000000600052602260045260246000fd5b7f4e487b7100000000000000000000000000000000000000000000000000000000600052604160045260246000fd5b6000601f19601f8301169050919050565b7f506c617965722773206865616c7468206d75737420626520677265617465722060008201527f7468616e203020485020746f2061747461636b21000000000000000000000000602082015250565b7f4552433732313a207472616e7366657220746f206e6f6e20455243373231526560008201527f63656976657220696d706c656d656e7465720000000000000000000000000000602082015250565b7f426f737320697320616c72656164792064656164210000000000000000000000600082015250565b7f4552433732313a207472616e736665722066726f6d20696e636f72726563742060008201527f6f776e6572000000000000000000000000000000000000000000000000000000602082015250565b7f4552433732313a20746f6b656e20616c7265616479206d696e74656400000000600082015250565b7f2c20226d61785f76616c7565223a000000000000000000000000000000000000600082015250565b7f4552433732313a207472616e7366657220746f20746865207a65726f2061646460008201527f7265737300000000000000000000000000000000000000000000000000000000602082015250565b7f4552433732313a20617070726f766520746f2063616c6c657200000000000000600082015250565b7f4552433732313a206f70657261746f7220717565727920666f72206e6f6e657860008201527f697374656e7420746f6b656e0000000000000000000000000000000000000000602082015250565b7f4552433732313a20617070726f76652063616c6c6572206973206e6f74206f7760008201527f6e6572206e6f7220617070726f76656420666f7220616c6c0000000000000000602082015250565b7f4552433732313a2062616c616e636520717565727920666f7220746865207a6560008201527f726f206164647265737300000000000000000000000000000000000000000000602082015250565b7f4552433732313a206f776e657220717565727920666f72206e6f6e657869737460008201527f656e7420746f6b656e0000000000000000000000000000000000000000000000602082015250565b7f7d205d7d00000000000000000000000000000000000000000000000000000000600082015250565b7f4552433732313a206d696e7420746f20746865207a65726f2061646472657373600082015250565b7f4552433732313a20617070726f76656420717565727920666f72206e6f6e657860008201527f697374656e7420746f6b656e0000000000000000000000000000000000000000602082015250565b7f7b226e616d65223a202200000000000000000000000000000000000000000000600082015250565b7f222c20226465736372697074696f6e223a202254686973204e4654206c65747360008201527f2070656f706c6520706c617920696e207468652067616d6520496e757961736860208201527f6120576f726c6420536c6179657221222c2022696d616765223a202200000000604082015250565b7f4552433732313a20617070726f76616c20746f2063757272656e74206f776e6560008201527f7200000000000000000000000000000000000000000000000000000000000000602082015250565b7f202d204e46542023200000000000000000000000000000000000000000000000600082015250565b7f646174613a6170706c69636174696f6e2f6a736f6e3b6261736536342c000000600082015250565b7f4552433732313a207472616e736665722063616c6c6572206973206e6f74206f60008201527f776e6572206e6f7220617070726f766564000000000000000000000000000000602082015250565b7f222c202261747472696275746573223a205b207b202274726169745f7479706560008201527f223a20224865616c746820506f696e7473222c202276616c7565223a20000000602082015250565b7f7d2c207b202274726169745f74797065223a202241747461636b2044616d616760008201527f65222c202276616c7565223a2000000000000000000000000000000000000000602082015250565b6148ba81614068565b81146148c557600080fd5b50565b6148d18161407a565b81146148dc57600080fd5b50565b6148e881614086565b81146148f357600080fd5b50565b6148ff816140d2565b811461490a57600080fd5b5056fe25732061747461636b656420626f73732e2e2e20426f7373206e6f7720686173202573204850210a506c617965722077697468206368617261637465722025732061626f757420746f2061747461636b2e2e2e20506c617965722068617320257320485020616e642025732041747461636b4142434445464748494a4b4c4d4e4f505152535455565758595a6162636465666768696a6b6c6d6e6f707172737475767778797a303132333435363738392b2f4d696e746564204e465420772f20746f6b656e496420257320616e6420636861726163746572496e64657820257325732061747461636b656420706c617965722e2e2e20506c61796572206e6f772068617320257320485021a2646970667358221220b10988488d189c1543bf96bda8afd43a3c5370f1c82ac5cd53d857a2a672028964736f6c63430008010033496e697469616c697a6564207468652066696e616c20626f73732c2025732077697468202573204850207c20696d673a202573496e697469616c697a656420257320776974682025732048502c20696d673a202573",
    "linkReferences": {},
    "deployedLinkReferences": {}
}